:100000000C942A000C9447000C9447000C94470071
:100010000C9447000C9447000C9447000C94470044
:100020000C9447000C9447000C9447000C94470034
:100030000C9417120C9447000C9447000C94470042
:100040000C9447000C9447000C9447000C94470014
:100050000C94470011241FBECFE5D8E0DEBFCDBF12
:1000600010E0A0E6B0E0ECE1F9E202C005900D92EC
:10007000AA37B107D9F715E0AAE7B0E001C01D9291
:10008000AE3FB107E1F70E9442120C948C140C941D
:10009000000080E884BF84BF8FEF8ABB87BB84BB2E
:1000A00018BA089587B3837D87BBBC9A6C986E9A03
:1000B00080E188BB80EC8DB97894089583B7866021
:1000C00083BF89B7816089BF12BE78940895AAE37F
:1000D000B5E0E0E9F0E080EC01900D928150E1F7AD
:1000E000089581E088BB18BA0895EF92FF920F93AC
:1000F0001F93CF93DF93EB01E82EF92E00E010E081
:10010000F70181917F0180958BBB0E9471000F5F89
:100110001F4F08311105A1F7C05ADF4F888185BBF9
:100120008FE891E00197F1F700C0000015BADF9168
:10013000CF911F910F91FF90EF900895CF93DF9390
:10014000C8E0D0E060917A0070917B00CB01880F0D
:10015000991F860F971F23E0880F991F2A95E1F7B3
:10016000865C9A4F0E94750080917A0090917B0086
:100170000196BE010E944B1290937B0080937A00FF
:10018000E1CF0F931F93CF93DF9321303105E1F03F
:1001900026303105C9F02430310579F0A1E0B0E016
:1001A0002730310511F0A0E0B0E022303105F9F040
:1001B0002530310509F4D4C002C0A1E0B0E02430FC
:1001C000310509F4CDC002C0A1E0B0E0C1E0D0E04B
:1001D0002730310511F0C0E0D0E02330310561F067
:1001E0002630310549F02530310531F002C0C1E03B
:1001F000D0E02730310519F401E010E002C000E042
:1002000010E09A01220F331FFB01EE0FFF1F109722
:10021000C1F0240F351FE60FF71FB3E0EE0FFF1FED
:10022000BA95E1F7E21BF30BE955FF4F21E030E00F
:10023000082E02C0220F331F0A94E2F79081922BFE
:1002400018C0240F351FE60FF71FA3E0EE0FFF1FA6
:10025000AA95E1F7E21BF30BE955FF4F21E030E0EF
:10026000082E02C0220F331F0A94E2F720959081D6
:10027000922390839A01220F331FFB01EE0FFF1F81
:100280002097C1F0240F351FE60FF71FD3E0EE0FC4
:10029000FF1FDA95E1F7E21BF30BEA55FF4F21E070
:1002A00030E0082E02C0220F331F0A94E2F790813B
:1002B000922B18C0240F351FE60FF71FC3E0EE0F77
:1002C000FF1FCA95E1F7E21BF30BEA55FF4F21E050
:1002D00030E0082E02C0220F331F0A94E2F7209567
:1002E0009081922390839A01220F331FFB01EE0F1E
:1002F000FF1F01151105B9F0420F531FE60FF71F3D
:1003000073E0EE0FFF1F7A95E1F7E41BF50BEB5559
:10031000FF4F21E030E002C0220F331F8A95E2F741
:100320008081822B17C0420F531FE60FF71F63E037
:10033000EE0FFF1F6A95E1F7E41BF50BEB55FF4F3E
:1003400021E030E002C0220F331F8A95E2F72095AA
:10035000808182238083DF91CF911F910F91089537
:10036000C1E0D0E03DCF9A01220F331F240F351F8B
:10037000FB01EE0FFF1FE60FF71FA3E0EE0FFF1FBD
:10038000AA95E1F7E057FF4FE21BF30B468955278B
:1003900047FD5095082E02C0559547950A94E2F7FF
:1003A000417050702589332727FD3095082E02C0F3
:1003B000359527950A94E2F7217030706789772781
:1003C00067FD709502C0759567958A95E2F760FDA7
:1003D00007C04115510559F42115310561F41BC0C1
:1003E0004115510559F42115310561F417C0211546
:1003F000310559F416C023E030E018C0211531054D
:1004000039F412C026E030E011C025E030E00EC023
:1004100027E030E00BC020E030E008C021E030E011
:1004200005C022E030E002C024E030E0C9010895B8
:1004300080E090E00AC011922F5F3F4F28313105D4
:10044000D1F701968830910579F0FC01EE0FFF1F7E
:10045000E80FF91F23E0EE0FFF1F2A95E1F7E057A1
:10046000FF4F20E030E0E7CF0895CF93DF93EC011A
:100470000E941802CE0168E070E00E944B12AC01AD
:1004800067E070E021E030E00E94C1000E94670058
:10049000DF91CF910895CF93DF93EC010E94180272
:1004A000CE0168E070E00E944B12AC01BA0123E07B
:1004B00030E00E94C1000E946700DF91CF91089553
:1004C0008F929F92AF92BF92CF92DF92EF92FF9264
:1004D0000F931F93CF93DF938C015B014A01C0E020
:1004E000D0E0C017D10734F0CC24CA94DC2C00E053
:1004F00010E082C083E090E0BE0143E050E021E0E4
:1005000030E00E94C10083E090E0BE0144E050E092
:1005100021E030E00E94C10084E090E0BE0143E0B1
:1005200050E021E030E00E94C10084E090E0BE0194
:1005300044E050E021E030E00E94C1002196D1CF9C
:10054000C1E0D0E0C230D10519F0C530D10591F439
:1005500051E0E52EF12CCE01B801A70122E030E0F8
:100560000E94C1000894E11CF11C87E0E816F10428
:1005700091F738C0C130D10519F0C630D10591F4DA
:1005800041E0E42EF12CCE01B601A70122E030E0DB
:100590000E94C1000894E11CF11C87E0E816F104F8
:1005A00091F720C0CE01B60141E050E022E030E0FA
:1005B0000E94C100CE01B80142E050E022E030E0EC
:1005C0000E94C100CE01B80145E050E022E030E0D9
:1005D0000E94C100CE01B60146E050E022E030E0CA
:1005E0000E94C1002196C730D10509F0ABCF0F5F43
:1005F0001F4F0894C11CD11C0A151B050CF4A0CF79
:1006000000E010E02EC0C0E0D0E0209719F0C73025
:10061000D10589F4EE24FF24CE01B801A70123E01F
:1006200030E00E94C1000894E11CF11C88E0E8164B
:10063000F10491F710C0CE01B80140E050E023E092
:1006400030E00E94C100CE01B80147E050E023E055
:1006500030E00E94C1002196C830D105B1F60F5F8D
:100660001F4F081519057CF2DF91CF911F910F9153
:10067000FF90EF90DF90CF90BF90AF909F908F90C2
:1006800008955F926F927F928F929F92AF92BF92E6
:10069000CF92DF92EF92FF920F931F93CF93DF934E
:1006A000882329F0813029F440E096E604C041E82F
:1006B00001C040E090E0490F823011F428E101C010
:1006C00020E0420F772767FD7095682E772467FC3E
:1006D00070949301245F3F4F572F5095551F552716
:1006E000551FF901E057FF4FB081572E551C552477
:1006F000551C842F992787FD909580959095AB2F59
:10070000A823A59DA02D1124B42BB59FB02D112495
:10071000AB0FA08311E0161617060CF010E0F901DC
:10072000E057FF4FB08D01E0161617060CF400E0FD
:10073000F901E057FF4FAB2FA823A09FA02D112454
:10074000B42BB19FB02D1124AB0FA08FC1E062304C
:1007500071050CF4C0E0F901E057FF4FB0A9D1E0FA
:10076000623071050CF0D0E0F901E057FF4FAB2F7C
:10077000A823AD9FA02D1124B42BBC9FB02D112414
:10078000AB0FA0ABA1E0633071050CF4A0E0F90160
:10079000E852FF4FE080B1E0633071050CF0B0E04B
:1007A000F901E852FF4FFE2CF822FB9EF02C112499
:1007B000E42AEA9EE02C1124FE0CF082FF24F3943C
:1007C000643071050CF4FF24F901E051FF4FC08043
:1007D000EE24E394643071050CF0EE24F901E0514D
:1007E000FF4FDC2CD822DE9CD02C1124C42ACF9CB5
:1007F000C02C1124DC0CD082DD24D394653071052B
:100800000CF4DD24F901E85FFE4FA080CC24C394F2
:10081000653071050CF0CC24F901E85FFE4FBA2C6D
:10082000B822BC9CB02C1124A42AAD9CA02C11246D
:10083000BA0CB082BB24B394663071050CF4BB24AF
:10084000F901E05EFE4F8080AA24A3946630710512
:100850000CF0AA24F901E05EFE4F982C98229A9C95
:10086000902C1124842A8B9C802C1124980C90822B
:1008700099249394673071050CF49924F901E85C8C
:10088000FE4FE08188248394673071050CF0882442
:10089000285C3E4F6E2F6823689D602D1124E42B49
:1008A000E99DE02D11246E0FF9016083F301E756F5
:1008B000FF4F2081322F3823359D502C1124242BBB
:1008C000259F502D1124550E5082208D322F382314
:1008D000309F002D1124242B219F102D1124010F56
:1008E000008F20A9322F38233D9FD02D1124242B97
:1008F0002C9FC02D1124DC0FD0ABEF01C85BDF4F64
:100900002881322F38233B9FB02D1124242B2A9F7E
:10091000A02D1124BA0FB883DF01A05ABF4F2C912C
:10092000322F38233E9DE02C1124242B2F9DF02CB8
:100930001124EF0CEC92DF01A858BF4F2C91322FFD
:1009400038233C9DC02C1124242B2D9DD02C112408
:10095000CD0CCC92DF01A057BF4F2C91322F382302
:100960003A9DA02C1124242B2B9DB02C1124AB0CD0
:10097000AC92E855FF4F20818223889D802C112462
:10098000422B499D902C1124890C8082DF91CF91BC
:100990001F910F91FF90EF90DF90CF90BF90AF909D
:1009A0009F908F907F906F905F90089580E990E086
:1009B000382F292F4896A901252F342FD901FC0162
:1009C00028E101900D922150E1F721E08833920750
:1009D00079F7FC01119281E0E035F807D9F7089525
:1009E000CF92DF92EF92FF920F931F93CF93DF93FB
:1009F000EE24FF241CC0C801BE01A7010E94B30160
:100A00009C01C801BE01A6010E94C1002196C83008
:100A1000D10589F70F5F1F4F0830110519F0C0E0AD
:100A2000D0E0E9CF760188E0C816D104C9F000E033
:100A300010E067010894C11CD11CF1CFC801BE01B0
:100A400040E050E020E030E00E94C1002196C83034
:100A5000D105A1F70F5F1F4F0830110519F405C02C
:100A600000E010E0C0E0D0E0E9CFDF91CF911F912E
:100A70000F91FF90EF90DF90CF900895CF93DF9389
:100A8000C0E0D0E087E090E0BE0141E050E00E948D
:100A9000B3019C0187E090E0BE0140E050E00E947D
:100AA000C10087E090E0BE0142E050E00E94B30147
:100AB0009C0187E090E0BE0141E050E00E94C1004F
:100AC00087E090E0BE0143E050E00E94B3019C014A
:100AD00087E090E0BE0142E050E00E94C10087E064
:100AE00090E0BE0144E050E00E94B3019C0187E029
:100AF00090E0BE0143E050E00E94C10087E090E03A
:100B0000BE0145E050E00E94B3019C0187E090E007
:100B1000BE0144E050E00E94C10087E090E0BE01C9
:100B200046E050E00E94B3019C0187E090E0BE01E6
:100B300045E050E00E94C10087E090E0BE0147E040
:100B400050E00E94B3019C0187E090E0BE0146E0C6
:100B500050E00E94C10086E090E0BE0147E050E016
:100B60000E94B3019C0187E090E0BE0147E050E0A5
:100B70000E94C10085E090E0BE0147E050E00E9485
:100B8000B3019C0186E090E0BE0147E050E00E9486
:100B9000C10084E090E0BE0147E050E00E94B30154
:100BA0009C0185E090E0BE0147E050E00E94C1005A
:100BB00083E090E0BE0147E050E00E94B3019C0159
:100BC00084E090E0BE0147E050E00E94C10082E076
:100BD00090E0BE0147E050E00E94B3019C0183E039
:100BE00090E0BE0147E050E00E94C10081E090E04B
:100BF000BE0147E050E00E94B3019C0182E090E01A
:100C0000BE0147E050E00E94C10080E090E0BE01DC
:100C100047E050E00E94B3019C0181E090E0BE01FA
:100C200047E050E00E94C10080E090E0BE0146E055
:100C300050E00E94B3019C0180E090E0BE0147E0DB
:100C400050E00E94C10080E090E0BE0145E050E02D
:100C50000E94B3019C0180E090E0BE0146E050E0BC
:100C60000E94C10080E090E0BE0144E050E00E949C
:100C7000B3019C0180E090E0BE0145E050E00E949D
:100C8000C10080E090E0BE0143E050E00E94B3016B
:100C90009C0180E090E0BE0144E050E00E94C10071
:100CA00080E090E0BE0142E050E00E94B3019C0170
:100CB00080E090E0BE0143E050E00E94C10080E08F
:100CC00090E0BE0141E050E00E94B3019C0180E051
:100CD00090E0BE0142E050E00E94C10080E090E060
:100CE000BE0140E050E00E94B3019C0180E090E032
:100CF000BE0141E050E00E94C10081E090E0BE01F1
:100D000040E050E00E94B3019C0180E090E0BE0111
:100D100040E050E00E94C10082E090E0BE0140E06F
:100D200050E00E94B3019C0181E090E0BE0140E0F0
:100D300050E00E94C10083E090E0BE0140E050E03E
:100D40000E94B3019C0182E090E0BE0140E050E0CF
:100D50000E94C10084E090E0BE0140E050E00E94AB
:100D6000B3019C0183E090E0BE0140E050E00E94AE
:100D7000C10085E090E0BE0140E050E00E94B30178
:100D80009C0184E090E0BE0140E050E00E94C10080
:100D900086E090E0BE0140E050E00E94B3019C017B
:100DA00085E090E0BE0140E050E00E94C10087E095
:100DB00090E0BE0140E050E00E94B3019C0186E05B
:100DC00090E0BE0140E050E00E94C1002196C83092
:100DD000D10509F057CEDF91CF9108954F925F92E0
:100DE0006F927F928F929F92AF92BF92CF92DF923B
:100DF000EF92FF920F931F93CF93DF932C013B0150
:100E0000B42EA52E4901982FC92FD52D1BC0CE0178
:100E1000B801A70196010E94C100CE01B301A7014C
:100E200096010E94C100CE01B8014B2D5A2D9601AA
:100E30000E94C100CE01B3014B2D5A2D96010E9494
:100E4000C10021968C169D0614F7C62DD72D1BC008
:100E5000C401BE01A70196010E94C100C201BE01EA
:100E6000A70196010E94C100C401BE014B2D5A2D5D
:100E700096010E94C100C201BE014B2D5A2D960160
:100E80000E94C10021960C171D0714F7C501C92F38
:100E9000DA2D19C0C401B801AE0196010E94C1004B
:100EA000C201B801AE0196010E94C100C401B301A4
:100EB000AE0196010E94C100C201B301AE019601CC
:100EC0000E94C1002196EC16FD0624F7DF91CF9118
:100ED0001F910F91FF90EF90DF90CF90BF90AF9058
:100EE0009F908F907F906F905F904F900895CF92DA
:100EF000DF92EF92FF920F931F937C010E941802E2
:100F0000C70160E170E00E944B126B010894C11CA4
:100F1000D11CC70160E270E00E944B12883091053D
:100F20007CF4C70168E070E00E944B127C0180E015
:100F300090E060E070E040E050E09701870133C04E
:100F40008031910544F4C70168E070E00E944B12C3
:100F5000AC01BA010EC0883191059CF4C70168E06C
:100F600070E00E944B1247E050E0481B590BCA0149
:100F7000BA0127E030E007E010E0E7E0EE2EF12CC8
:100F800012C0C70168E070E00E944B1267E0E62ED5
:100F9000F12CE81AF90A80E090E060E070E040E0AF
:100FA00050E0970187010E94EE060E9467001F91A2
:100FB0000F91FF90EF90DF90CF9008952F923F9286
:100FC0004F925F926F927F928F929F92AF92BF9259
:100FD000CF92DF92EF92FF920F931F93DF93CF9305
:100FE000CDB7DEB72C970FB6F894DEBF0FBECDBFDE
:100FF0004C015B016A011A830983FC82EB827A014E
:101000001901240E351E2901460E571E3901680E9E
:10101000791E9301215030403E832D83A20141501F
:10102000504058874F83C10101979A8789875CC0D8
:10103000EB85FC85E815F90551F081E090E02D8104
:101040003E81E217F30729F080E090E002C081E0E2
:1010500090E00A151B0551F021E030E04F815885E2
:101060000417150729F020E030E002C021E030E04D
:10107000280F391FEC14FD0451F081E090E0E98560
:10108000FA85EE16FF0629F080E090E002C081E0CC
:1010900090E0820F931F823091053CF08B859C85F8
:1010A000B801A70129813A8106C08B859C85B801CA
:1010B000A7012B813C810E94C1002B853C852F5FBD
:1010C0003F4F3C872B874B855C85461557050CF4B5
:1010D000AFCF0F5F1F4F041515051CF49C868B8640
:1010E000F2CF0894E11CF11CE214F30414F485011E
:1010F000F2CF2C960FB6F894DEBF0FBECDBFCF91C6
:10110000DF911F910F91FF90EF90DF90CF90BF90F4
:10111000AF909F908F907F906F905F904F903F9097
:101120002F9008952F923F924F925F926F927F92ED
:101130008F929F92AF92BF92CF92DF92EF92FF92E7
:101140000F931F93DF93CF93CDB7DEB72C970FB6D6
:10115000F894DEBF0FBECDBF4C015B016A011A835C
:101160000983FC82EB827A011901240E351E2901C4
:10117000460E571E3901680E791E930121503040EA
:101180003E832D83C201019798878F83F1013197A8
:10119000FA87E9873DC02B853C8528153905A9F0DC
:1011A0008D819E812817390781F00A151B0569F08A
:1011B000EF81F8850E171F0741F0EC14FD0429F0AC
:1011C00029853A85E216F30639F48B859C85B801AA
:1011D000A70129813A8106C08B859C85B801A701AA
:1011E0002B813C810E94C1008B859C8501969C8748
:1011F0008B87EB85FC85E615F7056CF20F5F1F4FBB
:101200000415150514F4C401F2CF0894E11CF11C77
:10121000E214F30414F48501F3CF2C960FB6F8947E
:10122000DEBF0FBECDBFCF91DF911F910F91FF9019
:10123000EF90DF90CF90BF90AF909F908F907F9076
:101240006F905F904F903F902F900895CF92DF92D4
:10125000EF92FF920F931F93CF93DF937C016B016B
:10126000C0E0D0E0C230D1057CF081E090E0BE016A
:10127000A70196010E94C10082E090E0BE01A70193
:1012800096010E94C1000DC001E010E0C801BE013E
:10129000A70196010E94C1000F5F1F4F0730110583
:1012A000A9F72196C830D105E9F6DF91CF911F91BA
:1012B0000F91FF90EF90DF90CF900895CF92DF9243
:1012C000EF92FF920F931F93CF93DF937C016B01FB
:1012D000C0E0D0E0CE0102978430910570F001E0CB
:1012E00010E0C801BE01A70196010E94C1000F5F76
:1012F0001F4F07301105A9F721C0CE010397823097
:10130000910578F081E090E0BE01A70196010E946E
:10131000C10082E090E0BE01A70196010E94C100D9
:101320000DC001E010E0C801BE01A70196010E94B6
:10133000C1000F5F1F4F05301105A9F72196C83076
:10134000D10541F6DF91CF911F910F91FF90EF9062
:10135000DF90CF900895CF92DF92EF92FF920F939C
:101360001F93CF93DF938C017B01C0E0D0E0C130AD
:10137000D10519F0C630D10589F4A1E0CA2ED12CCF
:10138000C601BE01A80197010E94C1000894C11CBA
:10139000D11C86E0C816D10499F732C0209701F11C
:1013A000C730D105E9F081E090E0BE01A8019701C6
:1013B0000E94C10082E090E0BE01A80197010E9456
:1013C000C10085E090E0BE01A80197010E94C10024
:1013D00086E090E0BE01A80197010E94C10010C004
:1013E000F1E0CF2ED12CC601BE01A80197010E94C9
:1013F000C1000894C11CD11C85E0C816D10499F71E
:101400002196C830D10509F0B2CFDF91CF911F915D
:101410000F91FF90EF90DF90CF900895CF92DF92E1
:10142000EF92FF920F931F93CF93DF937C016B0199
:10143000C0E0D0E0C130D10519F0C630D10571F45B
:1014400001E010E0C801BE01A70196010E94C100A1
:101450000F5F1F4F07301105A9F734C0209719F00F
:10146000C730D10571F401E010E0C801BE01A70149
:1014700096010E94C1000F5F1F4F06301105A9F7AA
:1014800021C0CE0103978230910578F085E090E08D
:10149000BE01A70196010E94C10086E090E0BE0156
:1014A000A70196010E94C1000DC003E010E0C80131
:1014B000BE01A70196010E94C1000F5F1F4F0730B8
:1014C0001105A9F72196C830D10509F0B3CFDF91F6
:1014D000CF911F910F91FF90EF90DF90CF900895E3
:1014E000CF93DF93EC010E941802C830D10550F46D
:1014F000CE01809590958770907063E070E00E94B7
:1015000026092CC0CE0108978830910550F4CE01F1
:10151000809590958770907063E070E00E945E09FE
:101520001DC0CE0140978830910550F4CE018095C2
:1015300090958770907063E070E00E94AB090EC0D8
:10154000CE0148978830910548F4CE01809590955A
:101550008770907063E070E00E940E0A0E9467003E
:10156000DF91CF910895CF93DF93EC010E94180291
:10157000C830D10550F4CE01809590958770907059
:1015800065E070E00E9426092CC0CE0108978830E3
:10159000910550F4CE01809590958770907062E02F
:1015A00070E00E945E091DC0CE0140978830910511
:1015B00050F4CE01809590958770907061E070E056
:1015C0000E94AB090EC0CE0148978830910548F4BF
:1015D000CE01809590958770907066E070E00E94D3
:1015E0000E0A0E946700DF91CF9108950F931F9319
:1015F000CF93DF93EC018B0184E090E063E070E037
:10160000AE0198010E94C10084E090E067E070E0C4
:10161000AE0198010E94C10085E090E063E070E0B7
:10162000AE0198010E94C10085E090E065E070E0A5
:10163000AE0198010E94C10085E090E067E070E093
:10164000AE0198010E94C10086E090E064E070E085
:10165000AE0198010E94C10086E090E066E070E073
:10166000AE0198010E94C100DF91CF911F910F91AF
:101670000895CF93DF93EC010E943E05209739F443
:1016800080E090E061E070E00E9426091DC0C73054
:10169000D10539F480E090E062E070E00E945E09DC
:1016A00013C0CE30D10539F480E090E063E070E003
:1016B0000E94AB0909C0C231D10531F480E090E04D
:1016C00067E070E00E94F60A0E946700DF91CF9108
:1016D0000895AF92BF92CF92DF92EF92FF920F9355
:1016E0001F93CF93DF936B018034910514F4EC01C9
:1016F00002C0C0E4D0E00E94E913BE010E944B1278
:101700005C01C0E0D0E0B8E0EB2EF12C17C00E94E5
:10171000E9138C010E94E913FC01C801B7010E9482
:101720004B129C01CF01B7010E944B12AC01C901C1
:1017300067E070E096010E94C1002196CA15DB05A2
:1017400034F3DF91CF911F910F91FF90EF90DF90D5
:10175000CF90BF90AF9008950F931F93DF93CF93D7
:1017600000D000D000D0CDB7DEB78C0181E090E092
:101770000E94D604C80162E070E00E944B120097FC
:10178000E1F40E94E913DE011196EAE6F0E086E05A
:1017900001900D928150E1F70E94E91363E070E03F
:1017A0000E944B12880F991F8C0F9D1FFC016181B5
:1017B00072818AE090E00E94690B0E946700269681
:1017C0000FB6F894DEBF0FBECDBFCF91DF911F9152
:1017D0000F910895AF92BF92CF92DF92EF92FF9256
:1017E0000F931F93CF93DF938034910514F4EC0192
:1017F00002C0C0E4D0E00E94E913BE010E944B1277
:101800005C01C0E0D0E008E010E01FC00E94E913D6
:101810007C010E94E9136C010E94E9139C01C7013D
:10182000B8010E944B12FC01C601B8010E944B1284
:101830007C01C901B8010E944B129C01CF0167E0F5
:1018400070E0A7010E94C1002196CA15DB05F4F2E1
:10185000DF91CF911F910F91FF90EF90DF90CF908C
:10186000BF90AF900895CF93DF93EC0181E090E0BB
:101870000E94D604CE0162E070E00E944B120097F5
:1018800021F48AE090E00E94EA0B0E946700DF9159
:10189000CF910895CF92DF92EF92FF920F931F9313
:1018A000CF93DF937C01C0E0D0E0CE01039782307C
:1018B000910508F081C000E010E00115110519F054
:1018C00007301105D9F494E0C92ED12C86E0C81652
:1018D000D10439F4C80166E070E0AE0127E030E0E1
:1018E00004C0C801B601AE0197010E94C10008946E
:1018F000C11CD11C87E0C816D10441F70130110585
:1019000019F006301105A9F4C80160E070E0AE01DD
:1019100097010E94C100C80161E070E0AE0197012B
:101920000E94C100C80164E070E0AE0197010E940E
:10193000C1000230110519F00530110509F5CC245C
:10194000DD24C114D10439F4C80160E070E0AE01B7
:1019500027E030E00CC081E0C816D10451F084E0EB
:10196000C816D10431F0C801B601AE0197010E943A
:10197000C1000894C11CD11C88E0C816D10409F725
:10198000C80103978230910580F482E0C82ED12CE3
:10199000C801B601AE0197010E94C1000894C11CA4
:1019A000D11C86E0C816D10499F70F5F1F4F08308D
:1019B000110509F082CF8EC0C230D10521F0C530AB
:1019C000D10509F087C000E010E00115110519F0FC
:1019D0000730110579F4C80165E070E0AE019701A8
:1019E0000E94C100C80166E070E0AE0127E030E06F
:1019F0000E94C1000230110519F005301105E9F40B
:101A0000C80160E070E0AE0127E030E00E94C10054
:101A1000C80165E070E0AE0197010E94C100C801F5
:101A200066E070E0AE0197010E94C100C80167E066
:101A300070E0AE0197010E94C100C8010397823097
:101A40009105E0F4C80162E070E0AE0197010E94E8
:101A5000C100C80163E070E0AE0197010E94C100BF
:101A6000C80165E070E0AE0197010E94C100C801A5
:101A700067E070E0AE0197010E94C1000F5F1F4F49
:101A80000830110509F0A1CFC230D10599F483E0E7
:101A900090E066E070E042E050E027E030E00E9435
:101AA000C10084E090E066E070E042E050E027E0B2
:101AB00030E00EC083E090E066E070E0AE01970198
:101AC0000E94C10084E090E066E070E0AE01970102
:101AD0000E94C1002196C830D10509F0E6CEDF9101
:101AE000CF911F910F91FF90EF90DF90CF900895CD
:101AF000CF92DF92EF92FF920F931F93CF93DF93DA
:101B00007C01C0E0D0E0CE0103978230910508F05F
:101B100068C000E010E00115110519F0073011054B
:101B2000B9F4C80160E070E0AE0127E030E00E9447
:101B3000C100C80162E070E0AE0127E030E00E9421
:101B4000C100C80163E070E0AE0197010E94C100CE
:101B50000130110519F00630110571F4C80160E07B
:101B600070E0AE0197010E94C100C80163E070E01F
:101B7000AE0197010E94C1000230110519F0053035
:101B8000110599F4CC24DD2483E0C816D10431F08A
:101B9000C801B601AE0197010E94C1000894C11CA2
:101BA000D11C87E0C816D10479F7C80103978230A9
:101BB000910580F421E0C22ED12CC801B601AE01FE
:101BC00097010E94C1000894C11CD11C85E0C81671
:101BD000D10499F70F5F1F4F0830110509F09BCF13
:101BE00087C0C230D10521F0C530D10509F080C0D1
:101BF00000E010E00115110519F00730110581F41E
:101C0000C80160E070E0AE0127E030E00E94C10052
:101C1000C80162E070E0AE0127E030E00E94C10040
:101C20000230110519F005301105A9F4C80164E06E
:101C300070E0AE0197010E94C100C80165E070E04C
:101C4000AE0197010E94C100C80166E070E0AE01DC
:101C500097010E94C100C801039782309105E0F40A
:101C6000C80161E070E0AE0197010E94C100C801A7
:101C700062E070E0AE0197010E94C100C80164E01B
:101C800070E0AE0197010E94C100C80166E070E0FB
:101C9000AE0197010E94C1000F5F1F4F0830110570
:101CA00009F0A8CFC230D10599F483E090E065E057
:101CB00070E042E050E027E030E00E94C10084E0A4
:101CC00090E065E070E042E050E027E030E00EC0D8
:101CD00083E090E065E070E0AE0197010E94C100F2
:101CE00084E090E065E070E0AE0197010E94C100E1
:101CF0002196C830D10509F006CFDF91CF911F9111
:101D00000F91FF90EF90DF90CF900895DF93CF93E6
:101D10000F92CDB7DEB789830E941802898180FDBA
:101D200005C081E090E00E944A0C04C081E090E090
:101D30000E94780D0E9467000F90CF91DF91089567
:101D4000CF92DF92EF92FF920F931F930E9418029F
:101D500083E090E063E070E043E050E024E030E0B6
:101D600004E010E0B4E0EB2EF12CA7E0CA2ED12C59
:101D70000E94EE0682E090E062E070E042E050E017
:101D800025E030E005E010E0F5E0EF2EF12CE3E097
:101D9000CE2ED12C0E94EE0681E090E061E070E052
:101DA00041E050E026E030E006E010E0B6E0EB2E47
:101DB000F12CA2E0CA2ED12C0E94EE0680E090E029
:101DC00060E070E040E050E027E030E007E010E045
:101DD000F7E0EF2EF12CE1E0CE2ED12C0E94EE06A2
:101DE0000E9467001F910F91FF90EF90DF90CF90BE
:101DF0000895CF92DF92EF92FF920F931F93CF93AC
:101E0000DF936C010E941802C0E0D0E0CE0103977E
:101E10008230910508F059C000E010E0011511056D
:101E200019F00330110581F4EE24FF24C801B70135
:101E3000AE0196010E94C1000894E11CF11C86E0ED
:101E4000E816F10499F73AC0C8010197823091056C
:101E500068F4C80163E070E0AE0196010E94C10021
:101E6000C80166E070E0AE01960126C0053011059C
:101E700019F00730110521F4C80163E070E019C0C2
:101E800006301105D9F486E090E062E070E0AE0122
:101E900027E030E00E94C10086E090E063E070E05F
:101EA000AE0127E030E00E94C10086E090E064E0EF
:101EB00070E0AE0127E030E00E94C1000F5F1F4FCD
:101EC0000830110509F0AACF41C0C230D10519F080
:101ED000C530D105D9F500E010E00115110519F064
:101EE0000330110581F4EE24FF24C801B701AE01CF
:101EF00096010E94C1000894E11CF11C86E0E816DE
:101F0000F10499F71EC0C80101978230910568F469
:101F1000C80163E070E0AE0196010E94C100C801F3
:101F200066E070E0AE0196010AC00630110549F482
:101F300086E090E063E070E0AE0127E030E00E94D0
:101F4000C1000F5F1F4F0730110539F62196C830C9
:101F5000D10509F05BCFDF91CF911F910F91FF90D9
:101F6000EF90DF90CF900895EF92FF920F931F9321
:101F7000CF93DF930E94180200E010E0C80103979E
:101F80008230910508F09DC0C0E0D0E0209719F0A4
:101F9000C230D10589F4EE24FF24C701BE01A80197
:101FA00027E030E00E94C1000894E11CF11C88E0A9
:101FB000E816F10491F780C0C130D10519F0C330A3
:101FC000D10589F4EE24FF24C701BE01A80121E058
:101FD00030E00E94C1000894E11CF11C88E0E81682
:101FE000F10491F769C0C430D10519F0C630D105AC
:101FF00091F580E090E0BE01A80127E030E00E946A
:10200000C10081E090E0BE01A80123E030E00E9421
:10201000C10082E090E0BE01A80127E030E00E940C
:10202000C10083E090E0BE01A80123E030E00E94FF
:10203000C10094E0E92EF12CC701BE01A80127E000
:1020400030E00E94C1000894E11CF11C88E0E81611
:10205000F10491F731C080E090E0BE01A80123E0D7
:1020600030E00E94C10081E090E0BE01A80127E0BD
:1020700030E00E94C10082E090E0BE01A80123E0B0
:1020800030E00E94C10083E090E0BE01A80127E09B
:1020900030E00E94C10084E0E82EF12CC701BE01AF
:1020A000A80121E030E00E94C1000894E11CF11C6D
:1020B00088E0E816F10491F72196C830D10509F0BF
:1020C00065CF0F5F1F4F0830110509F057CFDF9123
:1020D000CF911F910F91FF90EF900895CF92DF92D3
:1020E000EF92FF920F931F930E94180282E090E0FC
:1020F00062E070E042E050E025E030E005E010E012
:10210000F5E0EF2EF12CE3E0CE2ED12C0E94EE066E
:102110001F910F91FF90EF90DF90CF9008958091E5
:102120007C0090917D00009709F45DC0809186004D
:1021300090918700E0918A00F0918B002281338199
:102140008217930744F520918C0030918D00211562
:10215000310521F40190F081E02D099580918C00EA
:1021600090918D000196E0918A00F0918B0064813E
:1021700075810E944B1290938D0080938C00009784
:1021800091F5809186009091870001969093870049
:102190008093860008951092870010928600109216
:1021A0008D0010928C0080918E0090918F00209174
:1021B000500130915101821793078CF4FC01EE0F0E
:1021C000FF1FEE5AFE4F2081318130938B00209308
:1021D0008A00019690938F0080938E00089510924C
:1021E0007D0010927C000895CF93DF93EC010E9454
:1021F0001802809152019091530190938B0080932B
:102200008A00D0935101C093500110928F00109218
:102210008E00109287001092860010928D0010920E
:102220008C0081E090E090937D0080937C00DF91B2
:10223000CF910895CF93DF9386E090E00E947212D1
:10224000FC01C8E1D0E0D383C28385E090E09583B0
:1022500084838BE492E091838083F0935301E09335
:10226000520186E090E00E947212FC01D383C28387
:1022700084E190E09583848385E392E09183808379
:10228000F0935501E093540182E090E00E94F41035
:10229000DF91CF91089586E090E00E947212FC01D8
:1022A00080E690E09383828382E090E0958384834C
:1022B00080E79AE091838083F0935301E093520189
:1022C00081E090E00E94F410089586E090E00E9482
:1022D0007212FC0180E690E09383828382E090E0BA
:1022E0009583848383EB9AE091838083F0935301F9
:1022F000E093520181E090E00E94F410089586E09E
:1023000090E00E947212FC0184EF91E0938382833B
:102310008FE090E09583848389E39BE091838083C1
:10232000F0935301E093520181E090E00E94F41099
:10233000089586E090E00E947212FC0180E892E02D
:102340009383828384E090E09583848387E797E09A
:1023500091838083F0935301E093520181E090E0F8
:102360000E94F410089586E090E00E947212FC0131
:1023700088EE93E09383828382E090E09583848368
:102380008CEA9BE091838083F0935301E0935201A8
:1023900081E090E00E94F410089586E090E00E94B1
:1023A0007212FC0188EE93E09383828382E090E0D6
:1023B0009583848383E39CE091838083F09353012E
:1023C000E093520181E090E00E94F410089586E0CD
:1023D00090E00E947212FC0188EE93E09383828366
:1023E00084E190E09583848386E89EE091838083F6
:1023F000F0935301E093520181E090E00E94F410C9
:1024000008950E94A00E0E946700089583E090E066
:102410000E94F90E0E94670008950E94B40F0E9466
:10242000670008950E946E100E94670008951F9231
:102430000F920FB60F9211242F933F934F935F93F8
:102440006F937F938F939F93AF93BF93EF93FF937C
:102450008FB16FB1677082958F700E9441030E94A7
:102460006700FF91EF91BF91AF919F918F917F9105
:102470006F915F914F913F912F910F900FBE0F90F1
:102480001F9018950E9449000E9452000E949E00D1
:1024900081E090E0089597FB092E07260AD077FD8A
:1024A00004D00CD006D000201AF4709561957F4FAF
:1024B0000895F6F7909581959F4F0895AA1BBB1B31
:1024C00051E107C0AA1FBB1FA617B70710F0A61B34
:1024D000B70B881F991F5A95A9F780959095BC0155
:1024E000CD010895CF93DF938230910510F482E0FF
:1024F00090E0E091FC05F091FD0540E050E020E027
:1025000030E026C06081718168177907E0F06817B4
:10251000790781F4828193812115310531F0D90148
:1025200013969C938E9312972BC09093FD058093E6
:10253000FC0526C04115510519F06417750718F4FC
:10254000AB01E901DF019F0172816381E72FF62F63
:102550003097C1F64115510501F1481B590B443024
:10256000510580F412968D919C911397209719F044
:102570009B838A8304C09093FD058093FC05FD0135
:10258000329646C0FD01E40FF51F819391934250AE
:10259000504011965C934E933BC02091FA053091C8
:1025A000FB052115310541F4209172003091730033
:1025B0003093FB052093FA0520917400309175004B
:1025C0002115310541F42DB73EB74091700050916F
:1025D0007100241B350BE091FA05F091FB05E21721
:1025E000F307A0F42E1B3F0B2817390778F0AC0136
:1025F0004E5F5F4F2417350748F04E0F5F1F509313
:10260000FB054093FA058193919302C0E0E0F0E06E
:10261000CF01DF91CF910895CF93DF93009709F415
:1026200091C0FC013297138212826091FC05709177
:10263000FD056115710581F420813181280F391F55
:102640008091FA059091FB058217930799F5F09315
:10265000FB05E093FA0576C0DB0180E090E002C064
:10266000CD01D901AE17BF0748F412962D913C91C8
:10267000139721153105A1F7CD0121C0B383A283A2
:10268000EF01499159919E01240F351FA217B307FD
:1026900079F42D913C911197240F351F2E5F3F4FF8
:1026A0003183208312962D913C911397338322839B
:1026B000009729F4F093FD05E093FC0543C0DC018D
:1026C0001396FC93EE9312974D915D91A40FB51F55
:1026D000EA17FB0769F420813181240F351F2E5F33
:1026E0003F4FEC0139832883228133813B832A8346
:1026F000E0E0F0E002C0FB01BC01DB0112968D912D
:102700009C9113970097B9F79B012E5F3F4F8D91D6
:102710009C911197820F931F4091FA055091FB05F0
:102720004817590779F4309729F41092FD05109253
:10273000FC0502C013821282225030403093FB0508
:102740002093FA05DF91CF910895A0E0B0E0EBEA85
:10275000F3E10C943B14EC01688179818A819B81BF
:10276000611571058105910521F464E279ED8BE530
:1027700097E02DE133EF41E050E00E941814790119
:102780008A0127EA31E440E050E00E94F9135B013E
:102790006C01C801B7012CEE34EF4FEF5FEF0E94E0
:1027A000F9136A0D7B1D8C1D9D1D97FF04C06150A0
:1027B000704080409048688379838A839B837F77C9
:1027C000CB01CDB7DEB7EAE00C9457140E94A513F5
:1027D000089586E790E00E94A5130895A0E0B0E078
:1027E0008093760090937700A0937800B09379005F
:1027F0000895629FD001739FF001829FE00DF11D4B
:10280000649FE00DF11D929FF00D839FF00D749F6A
:10281000F00D659FF00D9927729FB00DE11DF91F16
:10282000639FB00DE11DF91FBD01CF011124089573
:1028300097FB092E05260ED057FD04D04BD00AD0A9
:10284000001C38F450954095309521953F4F4F4FDF
:102850005F4F0895F6F790958095709561957F4F3D
:102860008F4F9F4F08952F923F924F925F926F929A
:102870007F928F929F92AF92BF92CF92DF92EF9210
:10288000FF920F931F93CF93DF93CDB7DEB7CA1B91
:10289000DB0B0FB6F894DEBF0FBECDBF09942A88BC
:1028A000398848885F846E847D848C849B84AA8464
:1028B000B984C884DF80EE80FD800C811B81AA81F1
:1028C000B981CE0FD11D0FB6F894DEBF0FBECDBFBC
:1028D000ED010895A1E21A2EAA1BBB1BFD010DC03C
:1028E000AA1FBB1FEE1FFF1FA217B307E407F507C0
:1028F00020F0A21BB30BE40BF50B661F771F881F9C
:10290000991F1A9469F760957095809590959B0131
:0C291000AC01BD01CF010895F894FFCF89
:10291C000102040810204080050003000700050098
:0A292C002000FE050000010000007D
:00000001FF
