:100000000C942A000C9447000C9447000C94470071
:100010000C9447000C9447000C9447000C94470044
:100020000C9447000C9447000C9447000C94470034
:100030000C94CD000C9447000C9447000C9447009E
:100040000C9447000C9447000C9447000C94470014
:100050000C94470011241FBECFE5D8E0DEBFCDBF12
:1000600010E0A0E6B0E0ECE5F2E002C005900D92F1
:10007000A638B107D9F712E0A6E8B0E001C01D929A
:10008000AD30B107E1F70E94A3000C942C010C9451
:10009000000080E884BF84BF8FEF8ABB87BB84BB2E
:1000A00018BA089587B3837D87BBBC9A6C986E9A03
:1000B00080E188BB8CEC8DB97894089581E088BB91
:1000C00018BA0895CF93DF9315BA8FEF8BBBC8E1B1
:1000D000D0E00E945E002197E1F7DF91CF91089573
:1000E000EF92FF920F931F93CF93DF93EA01E82ED5
:1000F000F92E00E010E0F70181917F0180958BBB24
:100100000E945E000F5F1F4F08311105A1F7C05A12
:10011000DF4F888185BB8FE891E00197F1F700C040
:10012000000015BADF91CF911F910F91FF90EF90D2
:100130000895ADE4B1E0EDE8F0E080EC01900D92BF
:100140008150E1F708950F931F93CF93DF930E949F
:1001500049000E94620000E010E0C0E0D0E002C070
:1001600000E010E0CE01880F991F8C0F9D1F23E047
:10017000880F991F2A95E1F7835B9E4F68E170E035
:10018000AE010E9470002196C770D0700F5F1F4FA4
:1001900081E00C32180724F7E5CF1F920F920FB6BB
:1001A0000F9211242F933F934F935F936F937F93FD
:1001B0008F939F93AF93BF93EF93FF9380918800AA
:1001C000909189004FB12091860030918700F9010C
:1001D000EE0FFF1FE20FF31F53E0EE0FFF1F5A95C4
:1001E000E1F7E80FF91FE357FF4F40830196909323
:1001F0008900809388000E949900809188009091E6
:10020000890088319105B1F410928900109288001C
:10021000809186009091870001969093870080934B
:1002200086008830910531F4109287001092860084
:100230000E949900FF91EF91BF91AF919F918F9193
:100240007F916F915F914F913F912F910F900FBED2
:0C0250000F901F901895FFCFF894FFCF7F
:10025C000102040810204080FF000000FF00000095
:10026C00FF00FFFFFFFF00FF00FFFFFFFF00010289
:06027C0003040506070063
:00000001FF
